{
  "address": "0x1cD148e6c3c9521F377bc0dE5729D6d49DD4A5aa",
  "abi": [
    {
      "inputs": [
        {
          "internalType": "address",
          "name": "exampleExternalContractAddress",
          "type": "address"
        }
      ],
      "stateMutability": "nonpayable",
      "type": "constructor"
    },
    {
      "anonymous": false,
      "inputs": [
        {
          "indexed": true,
          "internalType": "address",
          "name": "from",
          "type": "address"
        },
        {
          "indexed": true,
          "internalType": "uint256",
          "name": "deposit",
          "type": "uint256"
        }
      ],
      "name": "Stake",
      "type": "event"
    },
    {
      "inputs": [
        {
          "internalType": "address",
          "name": "",
          "type": "address"
        }
      ],
      "name": "balances",
      "outputs": [
        {
          "internalType": "uint256",
          "name": "",
          "type": "uint256"
        }
      ],
      "stateMutability": "view",
      "type": "function"
    },
    {
      "inputs": [],
      "name": "deadline",
      "outputs": [
        {
          "internalType": "uint256",
          "name": "",
          "type": "uint256"
        }
      ],
      "stateMutability": "view",
      "type": "function"
    },
    {
      "inputs": [],
      "name": "exampleExternalContract",
      "outputs": [
        {
          "internalType": "contract ExampleExternalContract",
          "name": "",
          "type": "address"
        }
      ],
      "stateMutability": "view",
      "type": "function"
    },
    {
      "inputs": [],
      "name": "execute",
      "outputs": [],
      "stateMutability": "nonpayable",
      "type": "function"
    },
    {
      "inputs": [],
      "name": "getBalance",
      "outputs": [
        {
          "internalType": "uint256",
          "name": "",
          "type": "uint256"
        }
      ],
      "stateMutability": "view",
      "type": "function"
    },
    {
      "inputs": [],
      "name": "stake",
      "outputs": [],
      "stateMutability": "payable",
      "type": "function"
    },
    {
      "inputs": [],
      "name": "threshold",
      "outputs": [
        {
          "internalType": "uint256",
          "name": "",
          "type": "uint256"
        }
      ],
      "stateMutability": "view",
      "type": "function"
    },
    {
      "inputs": [],
      "name": "timeLeft",
      "outputs": [
        {
          "internalType": "uint256",
          "name": "",
          "type": "uint256"
        }
      ],
      "stateMutability": "view",
      "type": "function"
    },
    {
      "inputs": [],
      "name": "withdraw",
      "outputs": [],
      "stateMutability": "payable",
      "type": "function"
    },
    {
      "stateMutability": "payable",
      "type": "receive"
    }
  ],
  "transactionHash": "0x0ab7036eecda8d815e4a51134f2ea29077d255c68b7cdb4f60808f52447f2300",
  "args": [
    "0xaf5A0faf13a304da8f48eac46Bdf1651bb375bBd"
  ],
  "numDeployments": 1,
  "solcInputHash": "cdbbb7c49b6d8d22bd98c47a82b81d0e",
  "bytecode": "0x6080604052610011426203f480610073565b60045534801561002057600080fd5b506040516107dd3803806107dd83398101604081905261003f9161009a565b6003805460ff191690556000600281905580546001600160a01b0319166001600160a01b03929092169190911790556100ca565b8082018082111561009457634e487b7160e01b600052601160045260246000fd5b92915050565b6000602082840312156100ac57600080fd5b81516001600160a01b03811681146100c357600080fd5b9392505050565b610704806100d96000396000f3fe60806040526004361061008a5760003560e01c80633a4b66f1116100595780633a4b66f11461015f5780633ccfd60b1461016757806342cde4e81461016f578063614619541461018b5780639f75f227146101a057600080fd5b806312065fe0146100e55780631300a6d11461010757806327e235e31461011c57806329dcb0cf1461014957600080fd5b366100e057306001600160a01b0316633a4b66f16040518163ffffffff1660e01b8152600401600060405180830381600087803b1580156100ca57600080fd5b505af11580156100de573d6000803e3d6000fd5b005b600080fd5b3480156100f157600080fd5b50475b6040519081526020015b60405180910390f35b34801561011357600080fd5b506100f46101d8565b34801561012857600080fd5b506100f461013736600461063a565b60016020526000908152604090205481565b34801561015557600080fd5b506100f460045481565b6100de6101fc565b6100de610369565b34801561017b57600080fd5b506100f4670de0b6b3a764000081565b34801561019757600080fd5b506100de610513565b3480156101ac57600080fd5b506000546101c0906001600160a01b031681565b6040516001600160a01b0390911681526020016100fe565b600060045442106101e95750600090565b426004546101f79190610680565b905090565b60008060009054906101000a90046001600160a01b03166001600160a01b0316639d9a7fe96040518163ffffffff1660e01b8152600401602060405180830381865afa158015610250573d6000803e3d6000fd5b505050506040513d601f19601f820116820180604052508101906102749190610699565b905080156102c95760405162461bcd60e51b815260206004820152601c60248201527f5374616b696e6720706572696f642068617320636f6d706c657465640000000060448201526064015b60405180910390fd5b3360009081526001602052604081205490036102f657336000908152600160205260409020349055610322565b336000908152600160205260409020546103119034906106bb565b336000908152600160205260409020555b346002600082825461033491906106bb565b9091555050604051349033907febedb8b3c678666e7f36970bc8f57abf6d8fa2e828c0da91ea5b75bf68ed101a90600090a350565b60008060009054906101000a90046001600160a01b03166001600160a01b0316639d9a7fe96040518163ffffffff1660e01b8152600401602060405180830381865afa1580156103bd573d6000803e3d6000fd5b505050506040513d601f19601f820116820180604052508101906103e19190610699565b905080156104315760405162461bcd60e51b815260206004820152601c60248201527f5374616b696e6720706572696f642068617320636f6d706c657465640000000060448201526064016102c0565b60035460ff1661048d5760405162461bcd60e51b815260206004820152602160248201527f646561646c696e65206e6f74206d65742c2063616e6e6f7420776974686472616044820152607760f81b60648201526084016102c0565b670de0b6b3a764000060025410156105105733600090815260016020526040902054801561050e576040513390819083156108fc029084906000818181858888f193505050501580156104e4573d6000803e3d6000fd5b5081600260008282546104f79190610680565b909155505033600090815260016020526040812055505b505b50565b6004544210156105655760405162461bcd60e51b815260206004820181905260248201527f646561646c696e65206e6f74206d65742c2063616e6e6f74206578656375746560448201526064016102c0565b60035460ff16156105b15760405162461bcd60e51b8152602060048201526016602482015275195e1958dd5d1948185b1c9958591e4818d85b1b195960521b60448201526064016102c0565b670de0b6b3a76400006002541061062b5760008054906101000a90046001600160a01b03166001600160a01b031663522e1177476040518263ffffffff1660e01b81526004016000604051808303818588803b15801561061057600080fd5b505af1158015610624573d6000803e3d6000fd5b5050505050565b6003805460ff19166001179055565b60006020828403121561064c57600080fd5b81356001600160a01b038116811461066357600080fd5b9392505050565b634e487b7160e01b600052601160045260246000fd5b818103818111156106935761069361066a565b92915050565b6000602082840312156106ab57600080fd5b8151801515811461066357600080fd5b808201808211156106935761069361066a56fea2646970667358221220e40e28435bc29d06a335eec0c8c5c133110519661d45e0e807a962ca6166b8d864736f6c63430008140033",
  "devdoc": {
    "kind": "dev",
    "methods": {},
    "version": 1
  },
  "userdoc": {
    "kind": "user",
    "methods": {},
    "version": 1
  },
  "storageLayout": {
    "storage": [
      {
        "astId": 25,
        "contract": "contracts/Staker.sol:Staker",
        "label": "exampleExternalContract",
        "offset": 0,
        "slot": "0",
        "type": "t_contract(ExampleExternalContract)12"
      },
      {
        "astId": 29,
        "contract": "contracts/Staker.sol:Staker",
        "label": "balances",
        "offset": 0,
        "slot": "1",
        "type": "t_mapping(t_address,t_uint256)"
      },
      {
        "astId": 31,
        "contract": "contracts/Staker.sol:Staker",
        "label": "totalDeposit",
        "offset": 0,
        "slot": "2",
        "type": "t_uint256"
      },
      {
        "astId": 36,
        "contract": "contracts/Staker.sol:Staker",
        "label": "canWithdraw",
        "offset": 0,
        "slot": "3",
        "type": "t_bool"
      },
      {
        "astId": 42,
        "contract": "contracts/Staker.sol:Staker",
        "label": "deadline",
        "offset": 0,
        "slot": "4",
        "type": "t_uint256"
      }
    ],
    "types": {
      "t_address": {
        "encoding": "inplace",
        "label": "address",
        "numberOfBytes": "20"
      },
      "t_bool": {
        "encoding": "inplace",
        "label": "bool",
        "numberOfBytes": "1"
      },
      "t_contract(ExampleExternalContract)12": {
        "encoding": "inplace",
        "label": "contract ExampleExternalContract",
        "numberOfBytes": "20"
      },
      "t_mapping(t_address,t_uint256)": {
        "encoding": "mapping",
        "key": "t_address",
        "label": "mapping(address => uint256)",
        "numberOfBytes": "32",
        "value": "t_uint256"
      },
      "t_uint256": {
        "encoding": "inplace",
        "label": "uint256",
        "numberOfBytes": "32"
      }
    }
  }
}